:1009FF00011B00011A000118000119001008303105
:0E0A0F00323334353637383941424344454698
:1009A500C294C295C296C297D290D291D292D29356
:1009B50075A038120A5B75A00F120A5B75A00112AB
:1009C5000A5B75A006120A5BE4F51CF51D1208000A
:1009D5008F187F327E00120A1EAF18120A667F64D6
:1009E5007E00120A1E051DE51D7002051CD3940626
:0A09F500E51C6480948040D580B6B4
:10080000C294D295D296D297D290D291D292D293CC
:100810002090093090FD751B010208D2209109300B
:1008200091FD751B010208E02092093092FD751BB5
:10083000010208EE2093093093FD751B010208FCAC
:10084000D294C295D296D297D290D291D292D2938C
:100850002090083090FD751B028077209108309120
:10086000FD751B02807A2092083092FD751B028074
:100870007D2093093093FD751B020208FCD294D2AF
:1008800095C296D297D290D291D292D293209008CC
:100890003090FD751B03803A2091083091FD751B47
:1008A00003803D2092083092FD751B038040209309
:1008B000083093FD751B038043D294D295D296C223
:1008C00097D290D291D292D29320900B3090FD7516
:1008D0001B04751A01803420910B3091FD751B04A7
:1008E000751A02802620920B3092FD751B04751A32
:1008F00003801820930B3093FD751B04751A048038
:100900000A7FF47E01120A1E020800E51B25E0257D
:09091000E02403251AF8E6FF2299
:100A1E00E4FDFCC3ED9FEE6480F8EC648098500713
:070A2E000DBD00010C80EC7E
:010A3500229E
:080A66008FA0120A4D020A36AE
:0B0A5B00C280C281D282C282020A3631
:0E0A4D00D280C281D282C282120A36020A36DA
:100A3600E4FFFED282C280D281D2820FBF00010EB5
:060A4600BE27F0BF10ED19
:010A4C002287
:03000000020919D9
:0C091900787FE4F6D8FD75811F020960AC
:100925000209A5E493A3F8E493A34003F68001F23A
:1009350008DFF48029E493A3F85407240CC8C333D3
:10094500C4540F4420C8834004F456800146F6DFA2
:10095500E4800B01020408102040809009FFE47E2A
:10096500019360BCA3FF543F30E509541FFEE49397
:10097500A360010ECF54C025E060A840B8E493A35E
:10098500FAE493A3F8E493A3C8C582C8CAC583CA89
:10099500F0A3C8C582C8CAC583CADFE9DEE780BE41
:010A1D0000D8
:00000001FF
